{
  "contractName": "Donation",
  "abi": [
    {
      "inputs": [
        {
          "internalType": "address",
          "name": "_registrationAddress",
          "type": "address"
        }
      ],
      "stateMutability": "nonpayable",
      "type": "constructor"
    },
    {
      "anonymous": false,
      "inputs": [
        {
          "indexed": true,
          "internalType": "address",
          "name": "donor",
          "type": "address"
        },
        {
          "indexed": false,
          "internalType": "uint256",
          "name": "amount",
          "type": "uint256"
        }
      ],
      "name": "DonationReceived",
      "type": "event"
    },
    {
      "inputs": [],
      "name": "totalDonationAmount",
      "outputs": [
        {
          "internalType": "uint256",
          "name": "",
          "type": "uint256"
        }
      ],
      "stateMutability": "view",
      "type": "function",
      "constant": true
    },
    {
      "inputs": [],
      "name": "totalDonations",
      "outputs": [
        {
          "internalType": "uint256",
          "name": "",
          "type": "uint256"
        }
      ],
      "stateMutability": "view",
      "type": "function",
      "constant": true
    },
    {
      "inputs": [],
      "name": "donate",
      "outputs": [],
      "stateMutability": "payable",
      "type": "function",
      "payable": true
    },
    {
      "inputs": [],
      "name": "getTotalDonations",
      "outputs": [
        {
          "internalType": "uint256",
          "name": "",
          "type": "uint256"
        }
      ],
      "stateMutability": "view",
      "type": "function",
      "constant": true
    },
    {
      "inputs": [],
      "name": "getTotalDonationAmount",
      "outputs": [
        {
          "internalType": "uint256",
          "name": "",
          "type": "uint256"
        }
      ],
      "stateMutability": "view",
      "type": "function",
      "constant": true
    }
  ],
  "bytecode": "0x608060405234801561001057600080fd5b506040516104c63803806104c68339818101604052810190610032919061008d565b806000806101000a81548173ffffffffffffffffffffffffffffffffffffffff021916908373ffffffffffffffffffffffffffffffffffffffff160217905550506100ff565b600081519050610087816100e8565b92915050565b60006020828403121561009f57600080fd5b60006100ad84828501610078565b91505092915050565b60006100c1826100c8565b9050919050565b600073ffffffffffffffffffffffffffffffffffffffff82169050919050565b6100f1816100b6565b81146100fc57600080fd5b50565b6103b88061010e6000396000f3fe60806040526004361061004a5760003560e01c80630865146a1461004f578063178496461461007a578063777c658f146100a5578063de2ed893146100d0578063ed88c68e146100fb575b600080fd5b34801561005b57600080fd5b50610064610105565b604051610071919061027e565b60405180910390f35b34801561008657600080fd5b5061008f61010f565b60405161009c919061027e565b60405180910390f35b3480156100b157600080fd5b506100ba610115565b6040516100c7919061027e565b60405180910390f35b3480156100dc57600080fd5b506100e561011f565b6040516100f2919061027e565b60405180910390f35b610103610125565b005b6000600254905090565b60025481565b6000600154905090565b60015481565b60003411610168576040517f08c379a000000000000000000000000000000000000000000000000000000000815260040161015f9061025e565b60405180910390fd5b6001600081548092919061017b9061030a565b9190505550346002600082825461019291906102aa565b925050819055503373ffffffffffffffffffffffffffffffffffffffff167f264f630d9efa0d07053a31163641d9fcc0adafc9d9e76f1c37c2ce3a558d2c52346040516101df919061027e565b60405180910390a2565b60006101f6602983610299565b91507f446f6e6174696f6e20616d6f756e74206d75737420626520677265617465722060008301527f7468616e207a65726f00000000000000000000000000000000000000000000006020830152604082019050919050565b61025881610300565b82525050565b60006020820190508181036000830152610277816101e9565b9050919050565b6000602082019050610293600083018461024f565b92915050565b600082825260208201905092915050565b60006102b582610300565b91506102c083610300565b9250827fffffffffffffffffffffffffffffffffffffffffffffffffffffffffffffffff038211156102f5576102f4610353565b5b828201905092915050565b6000819050919050565b600061031582610300565b91507fffffffffffffffffffffffffffffffffffffffffffffffffffffffffffffffff82141561034857610347610353565b5b600182019050919050565b7f4e487b7100000000000000000000000000000000000000000000000000000000600052601160045260246000fdfea2646970667358221220258b9fd48a2ee5073c0c829b9e566e4acba6ce39fb3cfafe10878490751f848e64736f6c63430008000033",
  "immutableReferences": {},
  "source": "// SPDX-License-Identifier: MIT\npragma solidity ^0.8.0;\n\nimport \"./Registration.sol\";\n\ncontract Donation {\n    Registration private registration;\n\n    uint256 public totalDonations;\n    uint256 public totalDonationAmount;\n\n    event DonationReceived(address indexed donor, uint256 amount);\n\n    constructor(address _registrationAddress) {\n        registration = Registration(_registrationAddress);\n    }\n\n    function donate() public payable {\n        require(msg.value > 0, \"Donation amount must be greater than zero\");\n\n        totalDonations++;\n        totalDonationAmount += msg.value;\n\n        emit DonationReceived(msg.sender, msg.value);\n    }\n\n    function getTotalDonations() public view returns (uint256) {\n        return totalDonations;\n    }\n\n    function getTotalDonationAmount() public view returns (uint256) {\n        return totalDonationAmount;\n    }\n}\n",
  "sourcePath": "/Users/meenasmacbook/sem6/Blockchain/CryptoScholarChainTruffle/contracts/Donation.sol",
  "compiler": {
    "name": "solc",
    "version": "0.8.0+commit.c7dfd78e.Emscripten.clang"
  },
  "schemaVersion": "3.4.16",
  "updatedAt": "2024-05-22T07:34:18.548Z",
  "networkType": "ethereum",
  "devdoc": {
    "kind": "dev",
    "methods": {},
    "version": 1
  },
  "userdoc": {
    "kind": "user",
    "methods": {},
    "version": 1
  }
}