{
  "contractName": "Registration",
  "abi": [
    {
      "anonymous": false,
      "inputs": [
        {
          "indexed": true,
          "internalType": "address",
          "name": "userAddress",
          "type": "address"
        },
        {
          "indexed": false,
          "internalType": "string",
          "name": "ipfsHash",
          "type": "string"
        }
      ],
      "name": "DocumentSubmitted",
      "type": "event"
    },
    {
      "anonymous": false,
      "inputs": [
        {
          "indexed": true,
          "internalType": "address",
          "name": "userAddress",
          "type": "address"
        },
        {
          "indexed": false,
          "internalType": "string",
          "name": "userType",
          "type": "string"
        },
        {
          "indexed": false,
          "internalType": "string",
          "name": "ipfsHash",
          "type": "string"
        }
      ],
      "name": "UserRegistered",
      "type": "event"
    },
    {
      "anonymous": false,
      "inputs": [
        {
          "indexed": true,
          "internalType": "address",
          "name": "userAddress",
          "type": "address"
        }
      ],
      "name": "UserReset",
      "type": "event"
    },
    {
      "inputs": [],
      "name": "totalApplicationAmount",
      "outputs": [
        {
          "internalType": "uint256",
          "name": "",
          "type": "uint256"
        }
      ],
      "stateMutability": "view",
      "type": "function",
      "constant": true
    },
    {
      "inputs": [],
      "name": "totalApplications",
      "outputs": [
        {
          "internalType": "uint256",
          "name": "",
          "type": "uint256"
        }
      ],
      "stateMutability": "view",
      "type": "function",
      "constant": true
    },
    {
      "inputs": [
        {
          "internalType": "address",
          "name": "",
          "type": "address"
        }
      ],
      "name": "users",
      "outputs": [
        {
          "internalType": "address",
          "name": "userAddress",
          "type": "address"
        },
        {
          "internalType": "string",
          "name": "userType",
          "type": "string"
        },
        {
          "internalType": "bool",
          "name": "isRegistered",
          "type": "bool"
        },
        {
          "internalType": "string",
          "name": "ipfsHash",
          "type": "string"
        }
      ],
      "stateMutability": "view",
      "type": "function",
      "constant": true
    },
    {
      "inputs": [
        {
          "internalType": "string",
          "name": "_userType",
          "type": "string"
        },
        {
          "internalType": "string",
          "name": "_ipfsHash",
          "type": "string"
        }
      ],
      "name": "registerUser",
      "outputs": [],
      "stateMutability": "nonpayable",
      "type": "function"
    },
    {
      "inputs": [
        {
          "internalType": "address",
          "name": "_userAddress",
          "type": "address"
        }
      ],
      "name": "getUser",
      "outputs": [
        {
          "components": [
            {
              "internalType": "address",
              "name": "userAddress",
              "type": "address"
            },
            {
              "internalType": "string",
              "name": "userType",
              "type": "string"
            },
            {
              "internalType": "bool",
              "name": "isRegistered",
              "type": "bool"
            },
            {
              "internalType": "string",
              "name": "ipfsHash",
              "type": "string"
            }
          ],
          "internalType": "struct Registration.User",
          "name": "",
          "type": "tuple"
        }
      ],
      "stateMutability": "view",
      "type": "function",
      "constant": true
    },
    {
      "inputs": [
        {
          "internalType": "string",
          "name": "_ipfsHash",
          "type": "string"
        }
      ],
      "name": "submitDocument",
      "outputs": [],
      "stateMutability": "nonpayable",
      "type": "function"
    },
    {
      "inputs": [
        {
          "internalType": "address",
          "name": "_userAddress",
          "type": "address"
        }
      ],
      "name": "resetUser",
      "outputs": [],
      "stateMutability": "nonpayable",
      "type": "function"
    },
    {
      "inputs": [],
      "name": "getTotalScholarshipApplications",
      "outputs": [
        {
          "internalType": "uint256",
          "name": "",
          "type": "uint256"
        }
      ],
      "stateMutability": "view",
      "type": "function",
      "constant": true
    },
    {
      "inputs": [],
      "name": "getTotalScholarshipAmount",
      "outputs": [
        {
          "internalType": "uint256",
          "name": "",
          "type": "uint256"
        }
      ],
      "stateMutability": "view",
      "type": "function",
      "constant": true
    },
    {
      "inputs": [
        {
          "internalType": "uint256",
          "name": "_amount",
          "type": "uint256"
        }
      ],
      "name": "incrementTotalApplicationAmount",
      "outputs": [],
      "stateMutability": "nonpayable",
      "type": "function"
    }
  ],
  "bytecode": "0x608060405234801561001057600080fd5b50611221806100206000396000f3fe608060405234801561001057600080fd5b506004361061009e5760003560e01c806394b495741161006657806394b4957414610145578063a761135614610163578063a87430ba14610181578063b7c28ea5146101b4578063db402d49146101d05761009e565b80631d2e4afd146100a3578063343959b4146100bf57806339ffe0d5146100db5780636f77926b146100f957806393dc3f1a14610129575b600080fd5b6100bd60048036038101906100b89190610bd1565b6101ee565b005b6100d960048036038101906100d49190610b67565b6103ed565b005b6100e36104cf565b6040516100f09190610f1b565b60405180910390f35b610113600480360381019061010e9190610b67565b6104d9565b6040516101209190610ef9565b60405180910390f35b610143600480360381019061013e9190610b90565b6106c6565b005b61014d610813565b60405161015a9190610f1b565b60405180910390f35b61016b610819565b6040516101789190610f1b565b60405180910390f35b61019b60048036038101906101969190610b67565b61081f565b6040516101ab9493929190610e0d565b60405180910390f35b6101ce60048036038101906101c99190610c3d565b61098c565b005b6101d86109a8565b6040516101e59190610f1b565b60405180910390f35b6000803373ffffffffffffffffffffffffffffffffffffffff1673ffffffffffffffffffffffffffffffffffffffff16815260200190815260200160002060020160009054906101000a900460ff161561027d576040517f08c379a000000000000000000000000000000000000000000000000000000000815260040161027490610ed9565b60405180910390fd5b60405180608001604052803373ffffffffffffffffffffffffffffffffffffffff168152602001838152602001600115158152602001828152506000803373ffffffffffffffffffffffffffffffffffffffff1673ffffffffffffffffffffffffffffffffffffffff16815260200190815260200160002060008201518160000160006101000a81548173ffffffffffffffffffffffffffffffffffffffff021916908373ffffffffffffffffffffffffffffffffffffffff16021790555060208201518160010190805190602001906103589291906109b2565b5060408201518160020160006101000a81548160ff02191690831515021790555060608201518160030190805190602001906103959291906109b2565b509050503373ffffffffffffffffffffffffffffffffffffffff167f92822564bab8864c3a47b34e8d23fbce5c46234eb5da261f94087b995ac0f33b83836040516103e1929190610e82565b60405180910390a25050565b6000808273ffffffffffffffffffffffffffffffffffffffff1673ffffffffffffffffffffffffffffffffffffffff168152602001908152602001600020600080820160006101000a81549073ffffffffffffffffffffffffffffffffffffffff02191690556001820160006104639190610a38565b6002820160006101000a81549060ff02191690556003820160006104879190610a38565b50508073ffffffffffffffffffffffffffffffffffffffff167fa84a765ff0b34a8011d2cf523c71c7cc26b88417c652ec9b3bad84220ef8f77760405160405180910390a250565b6000600154905090565b6104e1610a78565b6000808373ffffffffffffffffffffffffffffffffffffffff1673ffffffffffffffffffffffffffffffffffffffff1681526020019081526020016000206040518060800160405290816000820160009054906101000a900473ffffffffffffffffffffffffffffffffffffffff1673ffffffffffffffffffffffffffffffffffffffff1673ffffffffffffffffffffffffffffffffffffffff168152602001600182018054610590906110a4565b80601f01602080910402602001604051908101604052809291908181526020018280546105bc906110a4565b80156106095780601f106105de57610100808354040283529160200191610609565b820191906000526020600020905b8154815290600101906020018083116105ec57829003601f168201915b505050505081526020016002820160009054906101000a900460ff1615151515815260200160038201805461063d906110a4565b80601f0160208091040260200160405190810160405280929190818152602001828054610669906110a4565b80156106b65780601f1061068b576101008083540402835291602001916106b6565b820191906000526020600020905b81548152906001019060200180831161069957829003601f168201915b5050505050815250509050919050565b6000803373ffffffffffffffffffffffffffffffffffffffff1673ffffffffffffffffffffffffffffffffffffffff16815260200190815260200160002060020160009054906101000a900460ff16610754576040517f08c379a000000000000000000000000000000000000000000000000000000000815260040161074b90610eb9565b60405180910390fd5b806000803373ffffffffffffffffffffffffffffffffffffffff1673ffffffffffffffffffffffffffffffffffffffff16815260200190815260200160002060030190805190602001906107a99291906109b2565b50600160008154809291906107bd906110d6565b91905055503373ffffffffffffffffffffffffffffffffffffffff167ff2ba1c9bcd705b3a9bff9b7468dc4b5b83f20e7399561fb2c0e9d8ef6313cd37826040516108089190610e60565b60405180910390a250565b60025481565b60015481565b60006020528060005260406000206000915090508060000160009054906101000a900473ffffffffffffffffffffffffffffffffffffffff1690806001018054610868906110a4565b80601f0160208091040260200160405190810160405280929190818152602001828054610894906110a4565b80156108e15780601f106108b6576101008083540402835291602001916108e1565b820191906000526020600020905b8154815290600101906020018083116108c457829003601f168201915b5050505050908060020160009054906101000a900460ff1690806003018054610909906110a4565b80601f0160208091040260200160405190810160405280929190818152602001828054610935906110a4565b80156109825780601f1061095757610100808354040283529160200191610982565b820191906000526020600020905b81548152906001019060200180831161096557829003601f168201915b5050505050905084565b806002600082825461099e9190610fc4565b9250508190555050565b6000600254905090565b8280546109be906110a4565b90600052602060002090601f0160209004810192826109e05760008555610a27565b82601f106109f957805160ff1916838001178555610a27565b82800160010185558215610a27579182015b82811115610a26578251825591602001919060010190610a0b565b5b509050610a349190610ab8565b5090565b508054610a44906110a4565b6000825580601f10610a565750610a75565b601f016020900490600052602060002090810190610a749190610ab8565b5b50565b6040518060800160405280600073ffffffffffffffffffffffffffffffffffffffff16815260200160608152602001600015158152602001606081525090565b5b80821115610ad1576000816000905550600101610ab9565b5090565b6000610ae8610ae384610f67565b610f36565b905082815260208101848484011115610b0057600080fd5b610b0b848285611062565b509392505050565b600081359050610b22816111bd565b92915050565b600082601f830112610b3957600080fd5b8135610b49848260208601610ad5565b91505092915050565b600081359050610b61816111d4565b92915050565b600060208284031215610b7957600080fd5b6000610b8784828501610b13565b91505092915050565b600060208284031215610ba257600080fd5b600082013567ffffffffffffffff811115610bbc57600080fd5b610bc884828501610b28565b91505092915050565b60008060408385031215610be457600080fd5b600083013567ffffffffffffffff811115610bfe57600080fd5b610c0a85828601610b28565b925050602083013567ffffffffffffffff811115610c2757600080fd5b610c3385828601610b28565b9150509250929050565b600060208284031215610c4f57600080fd5b6000610c5d84828501610b52565b91505092915050565b610c6f8161101a565b82525050565b610c7e8161101a565b82525050565b610c8d8161102c565b82525050565b610c9c8161102c565b82525050565b6000610cad82610f97565b610cb78185610fa2565b9350610cc7818560208601611071565b610cd0816111ac565b840191505092915050565b6000610ce682610f97565b610cf08185610fb3565b9350610d00818560208601611071565b610d09816111ac565b840191505092915050565b6000610d21601683610fb3565b91507f55736572206973206e6f742072656769737465726564000000000000000000006000830152602082019050919050565b6000610d61601a83610fb3565b91507f5573657220697320616c726561647920726567697374657265640000000000006000830152602082019050919050565b6000608083016000830151610dac6000860182610c66565b5060208301518482036020860152610dc48282610ca2565b9150506040830151610dd96040860182610c84565b5060608301518482036060860152610df18282610ca2565b9150508091505092915050565b610e0781611058565b82525050565b6000608082019050610e226000830187610c75565b8181036020830152610e348186610cdb565b9050610e436040830185610c93565b8181036060830152610e558184610cdb565b905095945050505050565b60006020820190508181036000830152610e7a8184610cdb565b905092915050565b60006040820190508181036000830152610e9c8185610cdb565b90508181036020830152610eb08184610cdb565b90509392505050565b60006020820190508181036000830152610ed281610d14565b9050919050565b60006020820190508181036000830152610ef281610d54565b9050919050565b60006020820190508181036000830152610f138184610d94565b905092915050565b6000602082019050610f306000830184610dfe565b92915050565b6000604051905081810181811067ffffffffffffffff82111715610f5d57610f5c61117d565b5b8060405250919050565b600067ffffffffffffffff821115610f8257610f8161117d565b5b601f19601f8301169050602081019050919050565b600081519050919050565b600082825260208201905092915050565b600082825260208201905092915050565b6000610fcf82611058565b9150610fda83611058565b9250827fffffffffffffffffffffffffffffffffffffffffffffffffffffffffffffffff0382111561100f5761100e61111f565b5b828201905092915050565b600061102582611038565b9050919050565b60008115159050919050565b600073ffffffffffffffffffffffffffffffffffffffff82169050919050565b6000819050919050565b82818337600083830152505050565b60005b8381101561108f578082015181840152602081019050611074565b8381111561109e576000848401525b50505050565b600060028204905060018216806110bc57607f821691505b602082108114156110d0576110cf61114e565b5b50919050565b60006110e182611058565b91507fffffffffffffffffffffffffffffffffffffffffffffffffffffffffffffffff8214156111145761111361111f565b5b600182019050919050565b7f4e487b7100000000000000000000000000000000000000000000000000000000600052601160045260246000fd5b7f4e487b7100000000000000000000000000000000000000000000000000000000600052602260045260246000fd5b7f4e487b7100000000000000000000000000000000000000000000000000000000600052604160045260246000fd5b6000601f19601f8301169050919050565b6111c68161101a565b81146111d157600080fd5b50565b6111dd81611058565b81146111e857600080fd5b5056fea2646970667358221220bf7e218c818bfa8bd787989dfa2864fdf2b6a7da1d58f8710130c92ed9fe2fad64736f6c63430008000033",
  "immutableReferences": {},
  "source": "// SPDX-License-Identifier: MIT\npragma solidity ^0.8.0;\n\ncontract Registration {\n    struct User {\n        address userAddress;\n        string userType; // \"Student\" or \"Donor\"\n        bool isRegistered;\n        string ipfsHash;\n    }\n\n    mapping(address => User) public users;\n    uint256 public totalApplications;\n    uint256 public totalApplicationAmount;\n\n    event UserRegistered(address indexed userAddress, string userType, string ipfsHash);\n    event DocumentSubmitted(address indexed userAddress, string ipfsHash);\n    event UserReset(address indexed userAddress);\n\n    function registerUser(string memory _userType, string memory _ipfsHash) public {\n        require(!users[msg.sender].isRegistered, \"User is already registered\");\n        users[msg.sender] = User(msg.sender, _userType, true, _ipfsHash);\n        emit UserRegistered(msg.sender, _userType, _ipfsHash);\n    }\n\n    function getUser(address _userAddress) public view returns (User memory) {\n        return users[_userAddress];\n    }\n\n    function submitDocument(string memory _ipfsHash) public {\n        require(users[msg.sender].isRegistered, \"User is not registered\");\n        users[msg.sender].ipfsHash = _ipfsHash;\n        totalApplications++;\n        emit DocumentSubmitted(msg.sender, _ipfsHash);\n    }\n\n    function resetUser(address _userAddress) public {\n        delete users[_userAddress];\n        emit UserReset(_userAddress);\n    }\n\n    function getTotalScholarshipApplications() public view returns (uint256) {\n        return totalApplications;\n    }\n\n    function getTotalScholarshipAmount() public view returns (uint256) {\n        return totalApplicationAmount;\n    }\n\n    function incrementTotalApplicationAmount(uint256 _amount) external {\n        totalApplicationAmount += _amount;\n    }\n}\n\n",
  "sourcePath": "/Users/meenasmacbook/sem6/Blockchain/CryptoScholarChainTruffle/contracts/Registration.sol",
  "compiler": {
    "name": "solc",
    "version": "0.8.0+commit.c7dfd78e.Emscripten.clang"
  },
  "schemaVersion": "3.4.16",
  "updatedAt": "2024-05-22T07:34:18.546Z",
  "networkType": "ethereum",
  "devdoc": {
    "kind": "dev",
    "methods": {},
    "version": 1
  },
  "userdoc": {
    "kind": "user",
    "methods": {},
    "version": 1
  }
}