{
  "contractName": "Scholarship",
  "abi": [
    {
      "inputs": [
        {
          "internalType": "address",
          "name": "_registrationAddress",
          "type": "address"
        }
      ],
      "stateMutability": "nonpayable",
      "type": "constructor"
    },
    {
      "anonymous": false,
      "inputs": [
        {
          "indexed": true,
          "internalType": "address",
          "name": "studentAddress",
          "type": "address"
        },
        {
          "indexed": false,
          "internalType": "uint256",
          "name": "amountRequested",
          "type": "uint256"
        },
        {
          "indexed": false,
          "internalType": "string",
          "name": "ipfsHash",
          "type": "string"
        }
      ],
      "name": "ScholarshipApplied",
      "type": "event"
    },
    {
      "inputs": [
        {
          "internalType": "uint256",
          "name": "",
          "type": "uint256"
        }
      ],
      "name": "scholarshipApplications",
      "outputs": [
        {
          "internalType": "address",
          "name": "studentAddress",
          "type": "address"
        },
        {
          "internalType": "uint256",
          "name": "amountRequested",
          "type": "uint256"
        },
        {
          "internalType": "string",
          "name": "ipfsHash",
          "type": "string"
        }
      ],
      "stateMutability": "view",
      "type": "function",
      "constant": true
    },
    {
      "inputs": [],
      "name": "totalApplicationAmount",
      "outputs": [
        {
          "internalType": "uint256",
          "name": "",
          "type": "uint256"
        }
      ],
      "stateMutability": "view",
      "type": "function",
      "constant": true
    },
    {
      "inputs": [
        {
          "internalType": "uint256",
          "name": "_amountRequested",
          "type": "uint256"
        },
        {
          "internalType": "string",
          "name": "_ipfsHash",
          "type": "string"
        }
      ],
      "name": "applyForScholarship",
      "outputs": [],
      "stateMutability": "nonpayable",
      "type": "function"
    },
    {
      "inputs": [],
      "name": "getTotalScholarshipApplications",
      "outputs": [
        {
          "internalType": "uint256",
          "name": "",
          "type": "uint256"
        }
      ],
      "stateMutability": "view",
      "type": "function",
      "constant": true
    },
    {
      "inputs": [],
      "name": "getTotalScholarshipAmount",
      "outputs": [
        {
          "internalType": "uint256",
          "name": "",
          "type": "uint256"
        }
      ],
      "stateMutability": "view",
      "type": "function",
      "constant": true
    }
  ],
  "bytecode": "0x608060405234801561001057600080fd5b50604051610e49380380610e498339818101604052810190610032919061008d565b806000806101000a81548173ffffffffffffffffffffffffffffffffffffffff021916908373ffffffffffffffffffffffffffffffffffffffff160217905550506100ff565b600081519050610087816100e8565b92915050565b60006020828403121561009f57600080fd5b60006100ad84828501610078565b91505092915050565b60006100c1826100c8565b9050919050565b600073ffffffffffffffffffffffffffffffffffffffff82169050919050565b6100f1816100b6565b81146100fc57600080fd5b50565b610d3b8061010e6000396000f3fe608060405234801561001057600080fd5b50600436106100575760003560e01c806339ffe0d51461005c57806394b495741461007a578063c6c08a5814610098578063db402d49146100b4578063e84e6f9b146100d2575b600080fd5b610064610104565b6040516100719190610a3d565b60405180910390f35b610082610111565b60405161008f9190610a3d565b60405180910390f35b6100b260048036038101906100ad919061080b565b610117565b005b6100bc61045f565b6040516100c99190610a3d565b60405180910390f35b6100ec60048036038101906100e791906107e2565b610469565b6040516100fb939291906109bf565b60405180910390f35b6000600180549050905090565b60025481565b60008060009054906101000a900473ffffffffffffffffffffffffffffffffffffffff1673ffffffffffffffffffffffffffffffffffffffff16636f77926b336040518263ffffffff1660e01b815260040161017391906109a4565b60006040518083038186803b15801561018b57600080fd5b505afa15801561019f573d6000803e3d6000fd5b505050506040513d6000823e3d601f19601f820116820180604052508101906101c891906107a1565b9050806040015161020e576040517f08c379a000000000000000000000000000000000000000000000000000000000815260040161020590610a1d565b60405180910390fd5b7fe898e77115f00dcda73cfc4c764c000e9321c213165627895a7e873dce9bd7898160200151604051602001610244919061098d565b604051602081830303815290604052805190602001201461029a576040517f08c379a0000000000000000000000000000000000000000000000000000000008152600401610291906109fd565b60405180910390fd5b600160405180606001604052803373ffffffffffffffffffffffffffffffffffffffff16815260200185815260200184815250908060018154018082558091505060019003906000526020600020906003020160009091909190915060008201518160000160006101000a81548173ffffffffffffffffffffffffffffffffffffffff021916908373ffffffffffffffffffffffffffffffffffffffff16021790555060208201518160010155604082015181600201908051906020019061036392919061054b565b50505082600260008282546103789190610b10565b9250508190555060008054906101000a900473ffffffffffffffffffffffffffffffffffffffff1673ffffffffffffffffffffffffffffffffffffffff1663b7c28ea5846040518263ffffffff1660e01b81526004016103d89190610a3d565b600060405180830381600087803b1580156103f257600080fd5b505af1158015610406573d6000803e3d6000fd5b505050503373ffffffffffffffffffffffffffffffffffffffff167f8ba29a7ee3d689dd367ea1bef2db928d8e9f787704eff814f4b8079d07ad9e918484604051610452929190610a58565b60405180910390a2505050565b6000600254905090565b6001818154811061047957600080fd5b90600052602060002090600302016000915090508060000160009054906101000a900473ffffffffffffffffffffffffffffffffffffffff16908060010154908060020180546104c890610bf0565b80601f01602080910402602001604051908101604052809291908181526020018280546104f490610bf0565b80156105415780601f1061051657610100808354040283529160200191610541565b820191906000526020600020905b81548152906001019060200180831161052457829003601f168201915b5050505050905083565b82805461055790610bf0565b90600052602060002090601f01602090048101928261057957600085556105c0565b82601f1061059257805160ff19168380011785556105c0565b828001600101855582156105c0579182015b828111156105bf5782518255916020019190600101906105a4565b5b5090506105cd91906105d1565b5090565b5b808211156105ea5760008160009055506001016105d2565b5090565b60006106016105fc84610ab9565b610a88565b90508281526020810184848401111561061957600080fd5b610624848285610bae565b509392505050565b600061063f61063a84610ab9565b610a88565b90508281526020810184848401111561065757600080fd5b610662848285610bbd565b509392505050565b60008151905061067981610cc0565b92915050565b60008151905061068e81610cd7565b92915050565b600082601f8301126106a557600080fd5b81356106b58482602086016105ee565b91505092915050565b600082601f8301126106cf57600080fd5b81516106df84826020860161062c565b91505092915050565b6000608082840312156106fa57600080fd5b6107046080610a88565b905060006107148482850161066a565b600083015250602082015167ffffffffffffffff81111561073457600080fd5b610740848285016106be565b60208301525060406107548482850161067f565b604083015250606082015167ffffffffffffffff81111561077457600080fd5b610780848285016106be565b60608301525092915050565b60008135905061079b81610cee565b92915050565b6000602082840312156107b357600080fd5b600082015167ffffffffffffffff8111156107cd57600080fd5b6107d9848285016106e8565b91505092915050565b6000602082840312156107f457600080fd5b60006108028482850161078c565b91505092915050565b6000806040838503121561081e57600080fd5b600061082c8582860161078c565b925050602083013567ffffffffffffffff81111561084957600080fd5b61085585828601610694565b9150509250929050565b61086881610b66565b82525050565b600061087982610ae9565b6108838185610af4565b9350610893818560208601610bbd565b61089c81610caf565b840191505092915050565b60006108b282610ae9565b6108bc8185610b05565b93506108cc818560208601610bbd565b80840191505092915050565b60006108e5602883610af4565b91507f4f6e6c792073747564656e74732063616e206170706c7920666f72207363686f60008301527f6c617273686970730000000000000000000000000000000000000000000000006020830152604082019050919050565b600061094b601683610af4565b91507f55736572206973206e6f742072656769737465726564000000000000000000006000830152602082019050919050565b61098781610ba4565b82525050565b600061099982846108a7565b915081905092915050565b60006020820190506109b9600083018461085f565b92915050565b60006060820190506109d4600083018661085f565b6109e1602083018561097e565b81810360408301526109f3818461086e565b9050949350505050565b60006020820190508181036000830152610a16816108d8565b9050919050565b60006020820190508181036000830152610a368161093e565b9050919050565b6000602082019050610a52600083018461097e565b92915050565b6000604082019050610a6d600083018561097e565b8181036020830152610a7f818461086e565b90509392505050565b6000604051905081810181811067ffffffffffffffff82111715610aaf57610aae610c80565b5b8060405250919050565b600067ffffffffffffffff821115610ad457610ad3610c80565b5b601f19601f8301169050602081019050919050565b600081519050919050565b600082825260208201905092915050565b600081905092915050565b6000610b1b82610ba4565b9150610b2683610ba4565b9250827fffffffffffffffffffffffffffffffffffffffffffffffffffffffffffffffff03821115610b5b57610b5a610c22565b5b828201905092915050565b6000610b7182610b84565b9050919050565b60008115159050919050565b600073ffffffffffffffffffffffffffffffffffffffff82169050919050565b6000819050919050565b82818337600083830152505050565b60005b83811015610bdb578082015181840152602081019050610bc0565b83811115610bea576000848401525b50505050565b60006002820490506001821680610c0857607f821691505b60208210811415610c1c57610c1b610c51565b5b50919050565b7f4e487b7100000000000000000000000000000000000000000000000000000000600052601160045260246000fd5b7f4e487b7100000000000000000000000000000000000000000000000000000000600052602260045260246000fd5b7f4e487b7100000000000000000000000000000000000000000000000000000000600052604160045260246000fd5b6000601f19601f8301169050919050565b610cc981610b66565b8114610cd457600080fd5b50565b610ce081610b78565b8114610ceb57600080fd5b50565b610cf781610ba4565b8114610d0257600080fd5b5056fea2646970667358221220959f83f98ed3bf4a77544087784f62c32b0e75d1acfae0edfc5b57e37005839d64736f6c63430008000033",
  "immutableReferences": {},
  "source": "// SPDX-License-Identifier: MIT\npragma solidity ^0.8.0;\n\nimport \"./Registration.sol\";\n\ncontract Scholarship {\n    Registration private registration;\n\n    struct ScholarshipApplication {\n        address studentAddress;\n        uint256 amountRequested;\n        string ipfsHash;\n    }\n\n    ScholarshipApplication[] public scholarshipApplications;\n    uint256 public totalApplicationAmount;\n    \n    event ScholarshipApplied(address indexed studentAddress, uint256 amountRequested, string ipfsHash);\n\n    constructor(address _registrationAddress) {\n        registration = Registration(_registrationAddress);\n    }\n\n    function applyForScholarship(uint256 _amountRequested, string memory _ipfsHash) public {\n        Registration.User memory user = registration.getUser(msg.sender);\n        require(user.isRegistered, \"User is not registered\");\n        require(keccak256(abi.encodePacked(user.userType)) == keccak256(\"Student\"), \"Only students can apply for scholarships\");\n\n        scholarshipApplications.push(ScholarshipApplication({\n            studentAddress: msg.sender,\n            amountRequested: _amountRequested,\n            ipfsHash: _ipfsHash\n        }));\n\n        totalApplicationAmount += _amountRequested;\n        registration.incrementTotalApplicationAmount(_amountRequested);\n        emit ScholarshipApplied(msg.sender, _amountRequested, _ipfsHash);\n    }\n\n    function getTotalScholarshipApplications() public view returns (uint256) {\n        return scholarshipApplications.length;\n    }\n\n    function getTotalScholarshipAmount() public view returns (uint256) {\n        return totalApplicationAmount;\n    }\n}\n",
  "sourcePath": "/Users/meenasmacbook/sem6/Blockchain/CryptoScholarChainTruffle/contracts/Scholarship.sol",
  "compiler": {
    "name": "solc",
    "version": "0.8.0+commit.c7dfd78e.Emscripten.clang"
  },
  "schemaVersion": "3.4.16",
  "updatedAt": "2024-05-22T07:34:18.550Z",
  "networkType": "ethereum",
  "devdoc": {
    "kind": "dev",
    "methods": {},
    "version": 1
  },
  "userdoc": {
    "kind": "user",
    "methods": {},
    "version": 1
  }
}